:200000000200E44103E59620E7FB22410B1105858396224113110585829722411B110585D4
:2000200097F0224123F583110D011D412B12000D020015413390114002002D413B901108B4
:2000400002002D4143114D88970155414B75832002000D415390110A02002D415B9011209C
:2000600002002D416302121B040612416BA9A5B7757DD24173040309040000417B0603441C
:20008000004600418375B7A575B7F1F58FE6F0758F00224193F59702000500419BE411951B
:0500A000E4019541A3FD
:2000A5001201000200000040C41061EA00010001000109021B0001010080320904000000DD
:2000C500FE010201092101FF004000100112034D005300460054003100300030001000208E
:2000E500B03375B98075D9007581E075B9C0E5B930E5FB900108112D75D7E0900F89112D41
:20010500900101112D900E00112D7902311CB9FFFBD9FE89D74100748611257482112530AF
:20012500F00C7491112530F206901100112D2230F0FC7805749611257583E0110D1105A6CF
:200145009730D5188A828B83BA0008EB20E0047403118574011185A3AA82AB8308D5F0DD5C
:20016500113510D5C9ED30E545EE603C147012EF45087003FA7B02E50BF960047905D2D587
:200185002214147016114DE41195741E1195119DE97001191195E41195015514600A1470C1
:2001A50004E9F801451470047902013D015DEE700221D8B4050C7583008F82438280112DC6
:2001C500013DB409048F04013DB40804A8040145B406D9EF54032508F890006593C89000BA
:1A01E5006D93F582E8C3950B4002A80B1105759620E4931195A3D8F9015521
:00000001FF
